S00B00004141412E7372656356
S11300000C942A000C943F000C943F000C943F0085
S11300100C943F000C943F000C943F000C943F0060
S11300200C943F000C943F000C943F000C943F0050
S11300300C943F000C943F000C943F000C943F0040
S11300400C943F000C943F000C943F000C943F0030
S11300500C943F0011241FBECFE5D8E0DEBFCDBF16
S113006010E0A0E6B0E0EAE0F1E002C005900D92F5
S1130070AA36B107D9F70E946B000C9483000C9444
S1130080000085BB80E282BB2FEF80E792E0215025
S113009080409040E1F700C0000012BA089585BB8B
S11300A080EA82BB2FEF80E792E0215080409040AD
S11300B0E1F700C0000080E882BB0895CF93DF938E
S11300C0EC0103C00E944F00219688818111FACF70
S11300D0DF91CF91089580EE81BB15BA12BA88E3FF
S11300E00E94410080E80E94410081E00E9441009A
S11300F08EE00E94410086E00E94410080E690E08C
S10D01000E945E00FFCFF894FFCFC9
S10D010A425545542049494354006E
S9030000FC
